:020000040000FA
:100000000C945C000C946E000C946E000C946E00CA
:100010000C946E000C946E000C946E000C946E00A8
:100020000C946E000C946E000C946E000C946E0098
:100030000C946E000C946E000C946E000C946E0088
:100040000C94A7000C946E000C946E000C946E003F
:100050000C946E000C946E000C946E000C946E0068
:100060000C946E000C946E00000000002400270029
:100070002A0000000000250028002B0004040404CE
:100080000404040402020202020203030303030342
:10009000010204081020408001020408102001021F
:1000A00004081020000000080002010000030407FB
:1000B000000000000000000011241FBECFEFD8E0B8
:1000C000DEBFCDBF21E0A0E0B1E001C01D92AA32A9
:1000D000B207E1F70E94F1000C9402050C940000B5
:1000E0008E50806480937C0080917A00806480933D
:1000F0007A0080917A0086FDFCCF80917800909103
:10010000790008953FB7F894809101019091020120
:10011000A0910301B091040126B5A89B05C02F3F13
:1001200019F00196A11DB11D3FBFBA2FA92F982F1D
:100130008827BC01CD01620F711D811D911D42E018
:10014000660F771F881F991F4A95D1F708951F9250
:100150000F920FB60F9211242F933F938F939F937B
:10016000AF93BF938091050190910601A091070183
:10017000B09108013091000123E0230F2D3758F58D
:100180000196A11DB11D209300018093050190935C
:100190000601A0930701B09308018091010190919D
:1001A0000201A0910301B09104010196A11DB11DAE
:1001B0008093010190930201A0930301B093040185
:1001C000BF91AF919F918F913F912F910F900FBE53
:1001D0000F901F90189526E8230F0296A11DB11DC0
:1001E000D2CF789484B5826084BD84B5816084BDAB
:1001F00085B5826085BD85B5816085BD80916E00C5
:10020000816080936E0010928100809181008260F5
:100210008093810080918100816080938100809132
:1002200080008160809380008091B1008460809321
:10023000B1008091B00081608093B00080917A001D
:10024000846080937A0080917A00826080937A0043
:1002500080917A00816080937A0080917A00806832
:1002600080937A001092C1008FEF8AB9CDE9D0E077
:10027000FE01249109E810E0F8018491882399F0A7
:1002800090E0880F991FFC01E859FF4FA591B491A8
:10029000FC01EE58FF4F859194918FB7F8949C9193
:1002A000292B2C938FBF3324339421EB822E20E013
:1002B000922E30E0A32E30E0B32E2FB7F894609149
:1002C00005017091060180910701909108012FBFEF
:1002D0000E940704609326017093270180932801F0
:1002E0009093290181E10E947000BC01990F880B55
:1002F000990B0E94090420E030EC4FE754E40E947F
:10030000660320E030E040EA50E40E9495046B016F
:100310007C01C0922201D0922301E0922401F0924C
:10032000250182E10E947000BC01990F880B990B96
:100330000E94090420E030EC4FE754E40E94660379
:1003400020E030E040EA50E40E94950420E030E0F4
:1003500040E251E40E949504A70196010E94F9022F
:1003600060931601709317018093180190931901FF
:100370002AE93CE74BEE5FE360910E0170910F01BB
:1003800080911001909111010E9495046B017C01F4
:100390002BE239ED49E55FE36091120170911301A1
:1003A00080911401909115010E9495049B01AC016C
:1003B000C701B6010E94F9026B017C012BED3AE8FE
:1003C0004DEF5DE360911A0170911B0180911C015A
:1003D00090911D010E9495049B01AC01C701B601DB
:1003E0000E94FA026B017C0127E63EE745EF5DE3E0
:1003F00060911E0170911F01809120019091210157
:100400000E9495049B01AC01C701B6010E94F9024C
:1004100060930A0170930B0180930C0190930D017E
:100420002DEC3CEC44E052E40E94660320E030E016
:100430004FE753E40E9495040E94D8036BB9809162
:100440000E0190910F01A0911001B09111018093C4
:10045000120190931301A0931401B09315018091A0
:100460000A0190910B01A0910C01B0910D018093B4
:100470000E0190930F01A0931001B0931101809190
:100480001A0190911B01A0911C01B0911D01809354
:100490001E0190931F01A0932001B0932101809130
:1004A000160190911701A0911801B0911901809344
:1004B0001A0190931B01A0931C01B0931D01209180
:1004C0000901232520930901F4019491FE018491EF
:1004D000F80134913323F1F0992359F0933009F462
:1004E00067C008F05AC0913009F468C0923009F42E
:1004F00069C0E32FF0E0EE0FFF1FEE58FF4FA5910C
:10050000B4919FB7F89421116AC02C9180958223F1
:100510008C939FBF2FB7F8946091050170910601ED
:1005200080910701909108012FBF0E94070420913C
:1005300026013091270140912801509129010E9404
:10054000F9029B01AC0160E070E088EC92E40E944B
:10055000F9020E94D8036B017C010E9482002B01EA
:100560003C01C114D104E104F104E1F10E948200D4
:100570006419750986099709683E734081059105DC
:1005800080F3F1E0CF1AD108E108F10828EE420E1D
:1005900023E0521E611C711CE4CF9730B1F09830FB
:1005A000D1F0943009F0A5CF909180009F7D03C0D9
:1005B000909180009F77909380009BCF94B59F7718
:1005C00094BD97CF94B59F7DFBCF9091B0009F775E
:1005D0009093B0008ECF9091B0009F7DF9CF2C9179
:1005E000822B96CFA114B10409F467CE0E940000BB
:1005F00064CE5058BB27AA270E9411030C945B04B9
:100600000E944D0438F00E94540420F039F49F3FBA
:1006100019F426F40C944A040EF4E095E7FB0C94CC
:100620004404E92F0E946C0458F3BA176207730759
:100630008407950720F079F4A6F50C948E040EF447
:10064000E0950B2EBA2FA02D0B01B90190010C01E2
:10065000CA01A0011124FF27591B99F0593F50F4FA
:10066000503E68F11A16F040A22F232F342F442752
:10067000585FF3CF469537952795A795F04053954A
:10068000C9F77EF41F16BA0B620B730B840BBAF01A
:100690009150A1F0FF0FBB1F661F771F881FC2F785
:1006A0000EC0BA0F621F731F841F48F48795779599
:1006B0006795B795F7959E3F08F0B0CF9395880F53
:1006C00008F09927EE0F9795879508950E947A0371
:1006D0000C945B040E94540458F00E944D0440F0B6
:1006E00029F45F3F29F00C94440451110C948F04B9
:1006F0000C944A040E946C0468F39923B1F35523C7
:1007000091F3951B550BBB27AA2762177307840724
:1007100038F09F5F5F4F220F331F441FAA1FA9F3BA
:1007200035D00E2E3AF0E0E832D091505040E695A8
:10073000001CCAF72BD0FE2F29D0660F771F881F09
:10074000BB1F261737074807AB07B0E809F0BB0BFC
:10075000802DBF01FF2793585F4F3AF09E3F510510
:1007600078F00C9444040C948F045F3FE4F3983EBB
:10077000D4F3869577956795B795F7959F5FC9F7F9
:10078000880F911D9695879597F90895E1E0660F7A
:10079000771F881FBB1F621773078407BA0720F0F3
:1007A000621B730B840BBA0BEE1F88F7E09508955C
:1007B0000E94740488F09F5798F0B92F9927B75179
:1007C000B0F0E1F0660F771F881F991F1AF0BA95F5
:1007D000C9F714C0B13091F00E948E04B1E00895C1
:1007E0000C948E04672F782F8827B85F39F0B93FB3
:1007F000CCF3869577956795B395D9F73EF49095A8
:100800008095709561957F4F8F4F9F4F0895E89425
:1008100009C097FB3EF490958095709561957F4F48
:100820008F4F9F4F9923A9F0F92F96E9BB279395F6
:10083000F695879577956795B795F111F8CFFAF406
:10084000BB0F11F460FF1BC06F5F7F4F8F4F9F4F37
:1008500016C0882311F096E911C0772321F09EE895
:10086000872F762F05C0662371F096E8862F70E0FB
:1008700060E02AF09A95660F771F881FDAF7880FD5
:100880009695879597F9089597F99F6780E870E0A6
:1008900060E008959FEF80EC089500240A941616F6
:1008A000170618060906089500240A94121613065E
:1008B000140605060895092E0394000C11F48823EC
:1008C00052F0BB0F40F4BF2B11F460FF04C06F5F08
:1008D0007F4F8F4F9F4F089557FD9058440F551FDE
:1008E00059F05F3F71F04795880F97FB991F61F0B2
:1008F0009F3F79F087950895121613061406551F29
:10090000F2CF4695F1DF08C0161617061806991F94
:10091000F1CF86957105610508940895E894BB2789
:1009200066277727CB0197F908950E94A8040C94B5
:100930005B040E944D0438F00E94540420F095237B
:1009400011F00C9444040C944A0411240C948F0468
:100950000E946C0470F3959FC1F3950F50E0551FF2
:10096000629FF001729FBB27F00DB11D639FAA2704
:10097000F00DB11DAA1F649F6627B00DA11D661F53
:10098000829F2227B00DA11D621F739FB00DA11D74
:10099000621F839FA00D611D221F749F3327A00D2E
:1009A000611D231F849F600D211D822F762F6A2FCA
:1009B00011249F5750409AF0F1F088234AF0EE0F2F
:1009C000FF1FBB1F661F771F881F91505040A9F75C
:1009D0009E3F510580F00C9444040C948F045F3FBB
:1009E000E4F3983ED4F3869577956795B795F79598
:1009F000E7959F5FC1F7FE2B880F911D9695879510
:080A000097F90895F894FFCF67
:107E0000112484B714BE81FFF0D085E080938100F7
:107E100082E08093C00088E18093C10086E0809377
:107E2000C20080E18093C4008EE0C9D0259A86E02C
:107E300020E33CEF91E0309385002093840096BBD3
:107E4000B09BFECF1D9AA8958150A9F7CC24DD24C4
:107E500088248394B5E0AB2EA1E19A2EF3E0BF2EE7
:107E6000A2D0813461F49FD0082FAFD0023811F036
:107E7000013811F484E001C083E08DD089C08234E0
:107E800011F484E103C0853419F485E0A6D080C0E4
:107E9000853579F488D0E82EFF2485D0082F10E0AE
:107EA000102F00270E291F29000F111F8ED06801E7
:107EB0006FC0863521F484E090D080E0DECF843638
:107EC00009F040C070D06FD0082F6DD080E0C81688
:107ED00080E7D80618F4F601B7BEE895C0E0D1E017
:107EE00062D089930C17E1F7F0E0CF16F0E7DF06D8
:107EF00018F0F601B7BEE89568D007B600FCFDCFD4
:107F0000A601A0E0B1E02C9130E011968C91119780
:107F100090E0982F8827822B932B1296FA010C0160
:107F200087BEE89511244E5F5F4FF1E0A038BF0790
:107F300051F7F601A7BEE89507B600FCFDCF97BE46
:107F4000E89526C08437B1F42ED02DD0F82E2BD052
:107F50003CD0F601EF2C8F010F5F1F4F84911BD097
:107F6000EA94F801C1F70894C11CD11CFA94CF0C13
:107F7000D11C0EC0853739F428D08EE10CD085E9AC
:107F80000AD08FE07ACF813511F488E018D01DD067
:107F900080E101D065CF982F8091C00085FFFCCF94
:107FA0009093C60008958091C00087FFFCCF809118
:107FB000C00084FD01C0A8958091C6000895E0E648
:107FC000F0E098E1908380830895EDDF803219F02E
:107FD00088E0F5DFFFCF84E1DECF1F93182FE3DFCA
:107FE0001150E9F7F2DF1F91089580E0E8DFEE27F6
:047FF000FF270994CA
:027FFE00040479
:00000001FF
